:04000000A0EF05F078
:100200000048756D69646974793A200054656D70B1
:0D0210003A20002E256420002E25640000F9
:10021E000C50D96EDA6ADFCFF6FF020EF76E0800C9
:10022E00F550250AD8A41EEF01F020EF01F0D9EF0A
:10023E0001F00C50D96EDA6ADF2A000E5F6E000EE6
:10024E005E6E5EC062F0606861680C50D96EDA6AEC
:10025E00DF50106E10C0F6FF020EF76E0800F5505C
:10026E00640AD8B43DEF01F03FEF01F04DEF01F01D
:10027E0010C0F6FF020EF76E0800F550690AD8A4FA
:10028E004BEF01F04DEF01F0D3EF01F00D50D96EB1
:10029E00DA6A020EDF26DF5CD96EDA6ADECF11F083
:1002AE00DECF12F00C50D96EDA6A1028DF6E200EF7
:1002BE00156E12BE65EF01F068EF01F0010E69EFE9
:1002CE0001F0000E0F6E150615503A0FD96EDA6A50
:1002DE0011C001F012C002F0000E046E0A0E036E81
:1002EE00C8EC03F001C007F002C008F086EC05F080
:1002FE000750300FDF6E11C001F012C002F0000E79
:10030E00046E0A0E036E67EC03F001C011F002C01A
:10031E0012F011501210D8B497EF01F099EF01F0CE
:10032E00A1EF01F01550D8A49FEF01F0A1EF01F05D
:10033E006AEF01F01550D8B4A7EF01F0A9EF01F064
:10034E00C8EF01F00F50D8B4AFEF01F0B1EF01F0EC
:10035E00C8EF01F0150615503A0FD96EDA6A2D0E58
:10036E00DF6EC8EF01F015503A0FD96EDA6ADF5022
:10037E000E6E0E50016E026A0BC003F01FEC04F0FD
:10038E00152A200E1518D8A4CFEF01F0D1EF01F0E9
:10039E00BAEF01F0EAEF01F00C50D96EDA6ADF2AFB
:1003AE00EAEF01F00C50D96EDA6ADFCFF6FF020EDB
:1003BE00F76E0800F550016E026A0BC003F01FECD9
:1003CE0004F0D3EF01F01200720ED36E0F0EC16E59
:1003DE0074EC04F0CDEC05F0B7EC05F021EC05F073
:1003EE00376E21EC05F0366E21EC05F0396E21ECFE
:1003FE0005F0386E010E046E010EF1EC04F0010EE4
:10040E00046E0450D8A4020E056EB6EC04F02C0E49
:10041E001A6E190E1B6E37C01CF01D6A6CEC05F0BF
:10042E002C0E046E056AB6EC04F02C0E1A6E130E2A
:10043E001B6E36C01CF01D6A6CEC05F02C0E046EA3
:10044E00056AB6EC04F0250EF3EC05F0010E046E11
:10045E00020EF1EC04F00C0E046E0450D8A4020E41
:10046E00056EB6EC04F02C0E1A6E190E1B6E39C00A
:10047E001CF01D6A6CEC05F02C0E046E056AB6ECD1
:10048E0004F02C0E1A6E180E1B6E38C01CF01D6A6E
:10049E006CEC05F02C0E046E056AB6EC04F0DF0E63
:1004AE00F3EC05F0430EF3EC05F0060E2B6E130E77
:1004BE002A6EAE0EE82EFED72A2EFCD72B2EFAD79A
:1004CE00F1EF01F000EF00F0036E8C84016A03AED1
:1004DE0001D0012A010E0116013201328C50011891
:1004EE007F0B01188C6E03C001F0060E026ED890C1
:1004FE000132022E7EEF02F0010E0116013A014684
:10050E0001468C500118BF0B01188C6E03C001F010
:10051E00050E026ED8900132022E91EF02F0010EFE
:10052E000116013A01468C500118DF0B01188C6E32
:10053E0003C001F0013A0F0E0116010E0116013A29
:10054E008C500118EF0B01188C6EECEC05F003C00B
:10055E0001F0D8900132D8900132D8900132010EBC
:10056E000116013201328C5001187F0B01188C6E6E
:10057E0003C001F0D8900132D8900132010E01165D
:10058E00013A014601468C500118BF0B01188C6EC2
:10059E0003C001F0D8900132010E0116013A014656
:1005AE008C500118DF0B01188C6E03C001F0010E88
:1005BE000116013A8C500118EF0B01188C6EECEC01
:1005CE0005F01200036E8C94016A03AE01D0012A6D
:1005DE00010E0116013201328C5001187F0B0118E9
:1005EE008C6E03C001F0060E026ED8900132022E00
:1005FE00FCEF02F0010E0116013A014601468C5045
:10060E000118BF0B01188C6E03C001F0050E026EAF
:10061E00D8900132022E0FEF03F0010E0116013AAF
:10062E0001468C500118DF0B01188C6E03C001F0CF
:10063E00013A0F0E0116010E0116013A8C500118E7
:10064E00EF0B01188C6EECEC05F003C001F0D890A6
:10065E000132D8900132D8900132010E01160132CA
:10066E0001328C5001187F0B01188C6E03C001F003
:10067E00D8900132D8900132010E0116013A01468E
:10068E0001468C500118BF0B01188C6E03C001F08F
:10069E00D8900132010E0116013A01468C50011814
:1006AE00DF0B01188C6E03C001F0010E0116013A2A
:1006BE008C500118EF0B01188C6EECEC05F012004B
:1006CE00066A04BE6FEF03F06DEF03F075EF03F0F3
:1006DE00036C041ED8B0042A010E066E02BE7CEF17
:1006EE0003F07AEF03F082EF03F0016C021ED8B034
:1006FE00022A010E061A000E086E000E076E035037
:10070E000410D8B48DEF03F08FEF03F0B7EF03F0C2
:10071E00010E056E97EF03F0D89003360436052AC6
:10072E0004AE9CEF03F09EEF03F093EF03F0D8902E
:10073E00073608360350015C04500258D8A0AAEFC1
:10074E0003F0ACEF03F0B1EF03F00350015E045081
:10075E00025A0780D89004320332052E9EEF03F022
:10076E000650D8B4BDEF03F0BFEF03F0C3EF03F0B4
:10077E00076C081ED8B0082A07C001F008C002F0A6
:10078E001200066A02BED0EF03F0CEEF03F0D6EFF2
:10079E0003F0016C021ED8B0022A010E066E04BED2
:1007AE00DDEF03F0DBEF03F0E1EF03F0036C041E6B
:1007BE00D8B0042A03500410D8B4E8EF03F0EAEFDF
:1007CE0003F00EEF04F0010E056EF2EF03F0D89079
:1007DE0003360436052A04AEF7EF03F0F9EF03F003
:1007EE00EEEF03F00350015C04500258D8A002EF64
:1007FE0004F004EF04F008EF04F00350015E04501F
:10080E00025AD89004320332052EF9EF03F0065047
:10081E00D8B414EF04F016EF04F01AEF04F0016CE4
:10082E00021ED8B0022A01C001F002C002F012006E
:10083E000350D8B425EF04F027EF04F02FEF04F0A7
:10084E000350D8A42DEF04F02FEF04F034EF04F092
:10085E000150F9EC05F073EF04F00350D96EDA6A2B
:10086E00090ED926DE50DE10D8B440EF04F042EF68
:10087E0004F05BEF04F00350D96EDA6A090ED92644
:10088E000350E16EE26A020EE126DE50E65CE650AF
:10089E00800A086EDE50800A0858D8B059EF04F06E
:1008AE005BEF04F073EF04F00350D96EDA6A020EB8
:1008BE00D926DF50046E0350D96EDA6ADF50042455
:1008CE00D96EDA6A01C0DFFF0350D96EDA6A020E02
:1008DE00D926DE2A000EDD22120095948C94959670
:1008EE008C9695988C98959A8C9A959C8C9C959EA6
:1008FE008C9E050E066EDF0E056EBC0EE82EFED724
:10090E00052EFCD7062EFAD78C9E8C9C8C8A8C8852
:10091E00ECEC05F07D0E056EAC0EE82EFED7052E26
:10092E00FCD7ECEC05F0040E056E1C0EE82EFED77F
:10093E00052EFCD700D0ECEC05F08C9E8C9C8C8A9E
:10094E008C98ECEC05F0280EE9EC02F06450E9EC22
:10095E0002F06350E9EC02F0DDEC05F01200086ADB
:10096E00D2EF04F008500424066E000E0520076E28
:10097E0006C0F6FF07C0F7FFF86A010EF76403D052
:10098E000800F55005D0F6CFE9FFF7CFEAFFEF509C
:10099E006BEC02F0082A08500424066E000E0520A7
:1009AE00076E06C0F6FF07C0F7FFF86A010EF76480
:1009BE0003D00800F55005D0F6CFE9FFF7CFEAFFD8
:1009CE00EF500009D8A4EEEF04F0F0EF04F0B9EF09
:1009DE0004F01200056E0504D8A4F8EF04F0FAEF47
:1009EE0004F0FCEF04F07F0E0426020E0518D8A4C6
:1009FE0003EF05F005EF05F007EF05F0BF0E042637
:100A0E00030E0518D8A40EEF05F010EF05F012EF47
:100A1E0005F0930E0426040E0518D8A419EF05F060
:100A2E001BEF05F01DEF05F0D30E04260450E9EC84
:100A3E0002F01200026A016A80A028EF05F02AEF88
:100A4E0005F023EF05F0140EE82EFED780A032EF4E
:100A5E0005F034EF05F038EF05F0D88002363BEFA5
:100A6E0005F002500224026E80B040EF05F042EF16
:100A7E0005F03BEF05F0012A070E016449EF05F082
:100A8E004BEF05F023EF05F00250120017C019F0DE
:100A9E0059EF05F016C00BF0190E0C6E18C00DF0C4
:100AAE000FEC01F019C0F6FF020EF76E0800F550BC
:100ABE000009D8A465EF05F067EF05F051EF05F0DA
:100ACE00000E176E000E166E12001C0E1E6E1AC051
:100ADE001FF0000E226E000E216E000E296E000E0B
:100AEE00286E1F0E166E1BC017F01E0E186E4DECE4
:100AFE0005F01A502124D96EDA6ADF6A120008BE98
:100B0E008BEF05F08DEF05F093EF05F007C007F0C2
:100B1E0008C008F09FEF05F007C009F008C00AF002
:100B2E00091E0A1E094A0A2A09C007F00AC008F05F
:100B3E001200F00EF66E0B0EF76E000EF86E090038
:100B4E00F5CF63F00900F5CF64F000EE3AF0290E10
:100B5E00EE6AE806FDE1000EF86E0001EBEF01F023
:100B6E0080B0BCEF05F0BEEF05F0B7EF05F080A04A
:100B7E00C3EF05F0C5EF05F0BEEF05F080B0CAEF8C
:100B8E0005F0CCEF05F0C5EF05F0120092908990BC
:100B9E002F0E016EC00EE82EFED7012EFCD78980D7
:100BAE000D0EE82EFED7000092801200010EE9EC29
:100BBE0002F02F0E046E8A0EE82EFED7042EFCD7FE
:100BCE0000D06350E9EC02F012008C86C00E00D00B
:100BDE00E82EFDD78C961200046E04506BEC02F0DA
:060BEE001200060C1200CB
:020000040030CA
:0E000000FF08191EFF8381FF03C003E00340C9
:00000001FF
