:0400000017EF05F001
:100200000048756D69646974793A200054656D70B1
:100210003A20002E0000156A12BE13EF01F011EF14
:1002200001F02DEF01F00FC001F010C002F011C07D
:1002300003F012C004F0FF0E056EFF0E066EFF0EF7
:10024000076EFF0E086E69EC04F001C00FF002C0EB
:1002500010F003C011F004C012F00FC016F010C06F
:1002600017F011C018F012C019F0152A19BE46EF88
:1002700001F019501810171007E10A0E165CD8B0DB
:1002800044EF01F046EF01F048EF01F064EF01F0B8
:1002900016C001F017C002F018C003F019C004F036
:1002A0000A0E056E000E066E000E076E000E086E3A
:1002B000C5EC01F001C016F002C017F003C018F041
:1002C00004C019F035EF01F01350155CD8A06BEFA6
:1002D00001F06DEF01F06FEF01F075EF01F0200E0E
:1002E0004AEC02F0130664EF01F00FC016F010C0E4
:1002F00017F011C018F012C019F0010E146E9CEF27
:1003000001F016C001F017C002F018C003F019C0C8
:1003100004F00A0E056E000E066E000E076E000E4B
:10032000086EC5EC01F001C016F002C017F003C062
:1003300018F004C019F0142A1550145CD8A0A3EFCB
:1003400001F0A5EF01F081EF01F016C001F017C038
:1003500002F018C003F019C004F00A0E056E000E7A
:10036000066E000E076E000E086E46EC03F001509C
:10037000300F4AEC02F015061550D8A4C2EF01F078
:10038000C4EF01F075EF01F012000A6A08BECDEF6C
:1003900001F0CBEF01F0D7EF01F0081E071E061E9B
:1003A000056C000E062207220822010E0A6E04BE0A
:1003B000DEEF01F0DCEF01F0E8EF01F0041E031EB8
:1003C000021E016C000E022203220422010E0A1AF0
:1003D000000E0B6E000E0C6E000E0D6E000E0E6EFB
:1003E0000550061007100810D8B4F9EF01F0FBEF24
:1003F00001F031EF02F0010E096E05EF02F0D89026
:100400000536063607360836092A08AE0AEF02F026
:100410000CEF02F0FFEF01F0D8900B360C360D36E2
:100420000E360550015C065002580750035808501C
:100430000458D8A01EEF02F020EF02F029EF02F0DE
:100440000550015E0650025A0750035A0850045ADC
:100450000B80D8900832073206320532092E0CEF95
:1004600002F00A50D8B437EF02F039EF02F041EF52
:1004700002F00E1E0D1E0C1E0B6C000E0C220D2227
:100480000E220BC001F00CC002F00DC003F00EC034
:1004900004F01200036E8C84016A03AE01D0012ABD
:1004A000010E0116013201328C5001187F0B011828
:1004B0008C6E03C001F0060E026ED8900132022E3F
:1004C0005DEF02F0010E0116013A014601468C5023
:1004D0000118BF0B01188C6E03C001F0050E026EEF
:1004E000D8900132022E70EF02F0010E0116013A8F
:1004F00001468C500118DF0B01188C6E03C001F00F
:10050000013A0F0E0116010E0116013A8C50011826
:10051000EF0B01188C6E63EC05F003C001F0D8906E
:100520000132D8900132D8900132010E0116013209
:1005300001328C5001187F0B01188C6E03C001F042
:10054000D8900132D8900132010E0116013A0146CD
:1005500001468C500118BF0B01188C6E03C001F0CE
:10056000D8900132010E0116013A01468C50011853
:10057000DF0B01188C6E03C001F0010E0116013A69
:100580008C500118EF0B01188C6E63EC05F0120013
:10059000036E8C94016A03AE01D0012A010E01168C
:1005A000013201328C5001187F0B01188C6E03C090
:1005B00001F0060E026ED8900132022EDBEF02F03F
:1005C000010E0116013A014601468C500118BF0B7D
:1005D00001188C6E03C001F0050E026ED890013236
:1005E000022EEEEF02F0010E0116013A01468C5088
:1005F0000118DF0B01188C6E03C001F0013A0F0ED9
:100600000116010E0116013A8C500118EF0B01186A
:100610008C6E63EC05F003C001F0D8900132D890E5
:100620000132D8900132010E0116013201328C5094
:1006300001187F0B01188C6E03C001F0D8900132B5
:10064000D8900132010E0116013A014601468C5044
:100650000118BF0B01188C6E03C001F0D890013255
:10066000010E0116013A01468C500118DF0B0118EA
:100670008C6E03C001F0010E0116013A8C50011876
:10068000EF0B01188C6E63EC05F012000A6A04BED1
:100690004EEF03F04CEF03F058EF03F0041E031E7F
:1006A000021E016C000E022203220422010E0A6EB9
:1006B00008BE5FEF03F05DEF03F067EF03F0081E85
:1006C000071E061E056C000E062207220822055092
:1006D000061007100810D8B470EF03F072EF03F0A3
:1006E000A2EF03F0010E096E7CEF03F0D8900536FF
:1006F000063607360836092A08AE81EF03F083EF85
:1007000003F076EF03F00550015C065002580750E5
:10071000035808500458D8A090EF03F092EF03F06C
:100720009AEF03F00550015E0650025A0750035A33
:100730000850045AD8900832073206320532092E82
:1007400083EF03F00A50D8B4A8EF03F0AAEF03F048
:10075000B2EF03F0041E031E021E016C000E022203
:100760000322042201C001F002C002F003C003F022
:1007700004C004F01200720ED36E0F0EC16E27EC8F
:1007800004F044EC05F02EEC05F0CEEC04F01C6E09
:10079000CEEC04F01D6ECEEC04F01E6ECEEC04F038
:1007A0001F6E010E046E010E9EEC04F0010E046E2D
:1007B000FAEC04F01C500F6E106A116A126A000EF7
:1007C000136E0BEC01F0130E046EFAEC04F01D50E6
:1007D0000F6E106A116A126A000E136E0BEC01F0B4
:1007E000250E6AEC05F0010E046E020E9EEC04F07C
:1007F0000C0E046EFAEC04F01E500F6E106A116AB3
:10080000126A000E136E0BEC01F0130E046EFAEC7C
:1008100004F01F500F6E106A116A126A000E136EF8
:100820000BEC01F0DF0E6AEC05F0430E6AEC05F00C
:10083000060E1B6E130E1A6EAE0EE82EFED71A2E83
:10084000FCD71B2EFAD7C1EF03F000EF00F0959410
:100850008C9495968C9695988C98959A8C9A959C54
:100860008C9C959E8C9E050E066EDF0E056EBC0E52
:10087000E82EFED7052EFCD7062EFAD78C9E8C9C30
:100880008C8A8C8863EC05F07D0E056EAC0EE82E2C
:10089000FED7052EFCD763EC05F0040E056E1C0E8A
:1008A000E82EFED7052EFCD700D063EC05F08C9E19
:1008B0008C9C8C8A8C9863EC05F0280EC8EC02F0B6
:1008C0002550C8EC02F02450C8EC02F054EC05F0BE
:1008D0001200000E096E000E0A6E000E0B6E000E66
:1008E0000C6E01A076EF04F078EF04F080EF04F0D6
:1008F0000550092606500A2207500B2208500C22E8
:10090000D8900536063607360836D89004320332BA
:10091000023201320150021003100410D8A493EFE8
:1009200004F095EF04F071EF04F009C001F00AC083
:1009300002F00BC003F00CC004F01200056E0504B9
:10094000D8A4A5EF04F0A7EF04F0A9EF04F07F0E00
:100950000426020E0518D8A4B0EF04F0B2EF04F09C
:10096000B4EF04F0BF0E0426030E0518D8A4BBEFA5
:1009700004F0BDEF04F0BFEF04F0930E0426040E64
:100980000518D8A4C6EF04F0C8EF04F0CAEF04F0CD
:10099000D30E04260450C8EC02F01200026A016A69
:1009A00080A0D5EF04F0D7EF04F0D0EF04F0140EE0
:1009B000E82EFED780A0DFEF04F0E1EF04F0E5EFD2
:1009C00004F0D8800236E8EF04F002500224026EF0
:1009D00080B0EDEF04F0EFEF04F0E8EF04F0012A4F
:1009E000070E0164F6EF04F0F8EF04F0D0EF04F026
:1009F00002501200066A07EF05F004500624056E47
:100A000005C0F6FF0800F5504AEC02F0062A045033
:100A10000624056E05C0F6FF0800F5500009D8A4AD
:100A200014EF05F016EF05F0FDEF04F01200DE0EF6
:100A3000F66E0A0EF76E000EF86E0900F5CF24F080
:100A40000900F5CF25F0236A226A216A206A000E88
:100A5000F86E020EF76E0001BBEF03F080B033EFCB
:100A600005F035EF05F02EEF05F080A03AEF05F028
:100A70003CEF05F035EF05F080B041EF05F043EFB6
:100A800005F03CEF05F01200929089902F0E016E58
:100A9000C00EE82EFED7012EFCD789800D0EE82E61
:100AA000FED7000092801200010EC8EC02F02F0E5B
:100AB000046E8A0EE82EFED7042EFCD700D02450F8
:100AC000C8EC02F012008C86C00E00D0E82EFDD7D4
:100AD0008C961200046E04504AEC02F01200060CD0
:020000040030CA
:0E000000FF08191EFF8381FF03C003E00340C9
:00000001FF
